:100000000C94BC000C94E4000C94E4000C94E40008
:100010000C94E4000C94E4000C94E4000C94E400D0
:100020000C94E4000C94E4000C9474050C94E30527
:100030000C94E4000C94E4000C94E4000C94E400B0
:100040000C94E4000C94E4000C94E4000C94E400A0
:100050000C94E4000C94E4000C94E4000C942A0545
:100060000C94E4000C94E4000C94E4000C94E40080
:100070000C94E4000C94E4000C94E4000C94E40070
:100080000C94E4000C94E4000C94E4000C94E40060
:100090000C94E4000C94E4000C94E4000C94E40050
:1000A0000C94E4000C94E4000C94E40005A84CCDFE
:1000B000B2D44EB93836A9020C50B9918688083CA2
:1000C000A6AAAA2ABE000000803F080B0002020276
:1000D00000000904000001020200000524001001D4
:1000E0000524010101042402060524060001070578
:1000F000810310004009040100020A000000070506
:1001000002024000000705830240000004030904C6
:1001100012010002EF02014041233680000101027A
:10012000030141726475696E6F204C4C430041724B
:100130006475696E6F204C656F6E6172646F000547
:10014000010902A1010901A100850105091901297F
:10015000031500250195037501810295017505813F
:100160000305010930093109381581257F75089586
:10017000038106C0C000150811241FBECFEFDAE0CE
:10018000DEBFCDBF21E0A4E3B1E001C01D92AD3CD4
:10019000B207E1F711E0A0E0B1E0E6ECF8E102C05F
:1001A00005900D92A433B107D9F710E0CCEBD0E065
:1001B00004C02197FE010E945B0CCB3BD107C9F71D
:1001C0000E949F080C94610C0C940000CF93DF9365
:1001D000FC0181819091A901482F490F5527551F96
:1001E000483051059CF5A281B381109709F525EAA5
:1001F00031E03383228320812093A7018093A801DB
:100200008091AA01820F80832091AB01A22FB0912F
:10021000AC018A2F821B8917E8F481813D91C82F98
:10022000D0E0C25FDE4F38838F5F8183F2CFD90188
:1002300018962D913C91199721153105C1F725EAA2
:1002400031E019963C932E931897D5CF80E0DF913B
:10025000CF91089581E0FBCFFC018091500188236C
:1002600011F13FB7F89482E08093E9002091F20009
:10027000822F90E01816190614F481E090E088238C
:1002800039F0289844E640934F014091F1004083B3
:10029000222339F02091F200211103C02BE6209394
:1002A000E8003FBF08958FEF9FEF08953FB7F894A0
:1002B00080914B0190914C01A0914D01B0914E0164
:1002C00026B5A89B05C02F3F19F00196A11DB11DB1
:1002D0003FBFBA2FA92F982F8827BC01CD01620FED
:1002E000711D811D911D42E0660F771F881F991FA8
:1002F0004A95D1F708958F929F92AF92BF92CF9275
:10030000DF92EF92FF926B017C010E9456014B013C
:100310005C01C114D104E104F104B9F00E9456015A
:10032000681979098A099B09683E7340810591051E
:1003300080F321E0C21AD108E108F10888EE880EA6
:1003400083E0981EA11CB11CE4CFFF90EF90DF90DA
:10035000CF90BF90AF909F908F90089540914201B1
:1003600050914301209140013091410142175307C0
:10037000B4F49091E8009570E1F39091E80092FD5B
:1003800019C08093F1008091420190914301019640
:100390008F739927892B19F48EEF8093E800809151
:1003A0004201909143010196909343018093420151
:1003B00081E0089580E00895EF92FF920F931F93DC
:1003C000CF93DF93F82E192FE62E042F81E0860FAE
:1003D000880F0E94AE0183E00E94AE01CF2DD12F85
:1003E000EC0EFD2EF11CCE15DF05B9F007FF13C092
:1003F000FE0184910E94AE01182F80E00E94AE01A0
:10040000812321968111EFCFDF91CF911F910F9121
:10041000FF90EF9008958881EDCF81E0F5CFDF92D6
:10042000EF92FF920F931F93CF93DF93D82E8A0101
:10043000EB017B01E40EF51ECE15DF0559F0D7FE6A
:1004400012C0FE0184910E94AE0121968111F4CF69
:100450000FEF1FEFC801DF91CF911F910F91FF9018
:10046000EF90DF9008958881EECF2FB7F8948770D2
:100470008093E9009091E800892F807295FF04C075
:100480009091F20080E4891B2FBF08957F928F9294
:100490009F92AF92BF92CF92DF92EF92FF920F9313
:1004A0001F93CF93DF93C82E8B017A018091500167
:1004B000811110C08FEF9FEFDF91CF911F910F91AE
:1004C000FF90EF90DF90CF90BF90AF909F908F9074
:1004D0007F9008958091460180FF05C08091E000E3
:1004E00082608093E000CE2DDF2DD12C8AEFB82ED4
:1004F0008C2D8770982E8C2D8072882E8C2D807478
:10050000782E9AE3A92E209719F4DD2009F452C021
:100510008C2D0E94350281110AC0BA94BB2051F281
:1005200061E070E080E090E00E947B01ECCF8C17EE
:100530001D0611F00CF08C2F9FB7F8949092E900F3
:100540002091E80025FD02C09FBFDDCF282F30E0BD
:10055000C21BD30B882029F08150A0F01092F1002B
:10056000FBCFF801C7FC0AC0815050F04191409385
:10057000F100FACF44914093F10031968150D0F7C9
:10058000020F131FDD2021F0A092E800D12CDCCF58
:100590008091E80085FD07C0A092E800DD24D39497
:1005A000209791F2F3CF209779F6772069F2A09205
:1005B000E800CACF5D9884E680934501C7017CCFEF
:1005C000615030F02091F100FC0120830196F8CFBA
:1005D000289884E680934F01089580913801811115
:1005E0000DC082E08093340184E080933501109245
:1005F00037011092360181E08093380184E391E065
:1006000008951F93CF93DF9300D000D01F92CDB7F2
:10061000DEB79091CC0199838A836B831C82809191
:10062000B60181112AC011E01093A9011093AA010B
:100630008FEA91E09093AC018093AB011092AE01F0
:100640001092AD018BE291E09093A6018093A501F9
:100650001092B1011092B0011092B3011092B20148
:100660001093B4011093B50181EC8093AF010E9407
:10067000ED020E94E6001093B60181E08D8341E017
:1006800050E0BE016B5F7F4F8091A8010E9446023F
:1006900097FD0AC08091A80144E050E0BE016F5F61
:1006A0007F4F80640E9446020F900F900F900F9032
:1006B0000F90DF91CF911F9108950F931F93CF93C8
:1006C000DF931F92CDB7DEB782E0898342E450E02A
:1006D0006AEC70E080E80E940F020E94ED02DC01EB
:1006E00012960D911C910115110589F0D801ED911B
:1006F000FC910280F381E02DBE016F5F7F4FC80146
:10070000099597FD04C0F80100851185ECCF89811A
:100710000F90DF91CF911F910F910895CF93DF93A9
:10072000EC0180910B01882331F083E00E944602A6
:100730001816190634F081E090E09B838A8380E0EC
:1007400090E0DF91CF910895CF93DF931F92CDB7C3
:10075000DEB76983DC01ED91FC910280F381E02D2D
:1007600041E050E0BE016F5F7F4F09950F90DF9130
:10077000CF91089583E08093E9008091F20088236F
:1007800019F08AE38093E800089583E00E9435021F
:1007900090E00895CF93DF931F92CDB7DEB7FC01B1
:1007A0008485958597FD08C02FEF3FEF3587248717
:1007B0000F90DF91CF910895CE0101960E942C01F8
:1007C000019719F4898190E0F3CF8FEF9FEFF0CF7D
:1007D0000F931F93CF93DF931F92CDB7DEB78C019A
:1007E000FC018485958597FF0BC0CE0101960E9480
:1007F0002C01019771F4898190E0F8019587848735
:10080000F801848595850F90DF91CF911F910F910D
:1008100008958FEF9FEFF1CF2FB7F894809151019A
:1008200090915201A0915301B09154012FBF809338
:100830005D0190935E01A0935F01B093600185E537
:1008400091E00E94E80397FF26C02FB7F8948091AB
:10085000510190915201A0915301B09154012FBFC9
:1008600040915D0150915E0160915F017091600166
:10087000841B950BA60BB70B4091590150915A015F
:1008800060915B0170915C0184179507A607B7071B
:10089000B0F28FEF9FEF0895FC018485958597FD59
:1008A0000BC09FB7F89482E08093E9008091F2003A
:1008B0009FBF90E0019608959FB7F89482E08093DF
:1008C000E9008091F2009FBF90E00895DC01FB01F8
:1008D00012962C911297848195812817190641F45C
:1008E00091818081813A31F49D7F81E0913009F0DE
:1008F00080E008958132E1F79B3029F482811F96D0
:100900008C9381E008959A3099F7828150968C9368
:10091000F8CFDC01FB0188E4808389E4818384E4EF
:1009200082831D969C911D979F709F5B93831D965C
:100930008D919C9124E0969587952A95E1F78F708B
:100940008F5B848385E00895EF92FF920F931F934E
:10095000CF93DF93FB012081213871F5238122326F
:1009600059F5DC0112964C9124813581421713060A
:1009700019F5EC010B851C85F12CE12C01151105F5
:1009800089F0F801448155816281738180E80E9479
:100990000F028F3F980749F0E80EF91ED8010D911C
:1009A0001C91ECCF81E08F87C701DF91CF911F9120
:1009B0000F91FF90EF90089590E080E0F6CFCF93F5
:1009C000DF93CDB7DEB769970FB6F894DEBF0FBEE1
:1009D000CDBFFC01DB018C918F5F8C939E012D5F5D
:1009E0003F4F8DE0D9011D928A95E9F729E02983CF
:1009F00084E08A8391E09D8383E08E832A8721E2CD
:100A00002B879C879D879F8722E2288B27E02B8B53
:100A100025E02C8B8E8B20E430E0388F2F8B998F44
:100A200082818B8395858685998B8A8B838180686B
:100A30008D8B49E150E0BE016F5F7F4F80E00E94E7
:100A40000F0269960FB6F894DEBF0FBECDBFDF91DF
:100A5000CF9108951F920F920FB60F9211242F93EA
:100A60003F938F939F93AF93BF9380915101909148
:100A70005201A0915301B091540130914A0123E0F9
:100A8000230F2D3758F50196A11DB11D20934A0162
:100A90008093510190935201A0935301B09354015C
:100AA00080914B0190914C01A0914D01B0914E016C
:100AB0000196A11DB11D80934B0190934C01A09311
:100AC0004D01B0934E01BF91AF919F918F913F9196
:100AD0002F910F900FBE0F901F90189526E8230FAF
:100AE0000296A11DB11DD2CF1F920F920FB60F9289
:100AF00011248F939F938091E1009091E100937F67
:100B00009093E10083FF0FC01092E90091E0909371
:100B1000EB001092EC0092E39093ED0010925001E4
:100B200098E09093F00082FF22C093E09093E90058
:100B30009091F200992319F09AE39093E800909134
:100B40004501992341F090914501915090934501C1
:100B5000911101C05D9A90914F01992341F09091BC
:100B60004F01915090934F01911101C0289A84FF39
:100B700018C08091E2008E7E81608093E2008091B7
:100B8000E1008F7E8093E100809146018E7E80613E
:100B9000809346019F918F910F900FBE0F901F90F1
:100BA000189580FFF7CF8091E2008E7E8061809360
:100BB000E2008091E1008E7E8093E1008091460109
:100BC0008E7E8160E5CF1F920F920FB60F92112497
:100BD000CF92DF92EF92FF920F931F932F933F9349
:100BE0004F935F936F937F938F939F93AF93BF9335
:100BF000EF93FF93CF93DF93CDB7DEB76C97DEBF54
:100C0000CDBF1092E9008091E80083FF25C068E025
:100C1000CE0145960E94E00282EF8093E8008D8924
:100C200087FF39C09091E80090FFFCCF982F907615
:100C300009F034C19E894F89588D2F89F88C911104
:100C400031C0803861F5809147018093F1001092A6
:100C5000F1008EEF8093E8006C960FB6F894DEBF3B
:100C60000FBECDBFDF91CF91FF91EF91BF91AF91BB
:100C70009F918F917F916F915F914F913F912F91B4
:100C80001F910F91FF90EF90DF90CF900F900FBECC
:100C90000F901F9018959EEF9093E800C7CF109289
:100CA000F100D5CF913059F48111D3CF41305105A6
:100CB00081F6809147018D7F80934701CACF9330A1
:100CC00049F48111C6CF4130510519F68091470191
:100CD0008260F2CF953041F48091E80080FFFCCF34
:100CE00020682093E300B5CF963009F0A9C00B8DA2
:100CF0001C8D22E01092E9001092430110924201F3
:100D0000F2122EC010924101109240010E945D0328
:100D10001F8299E09983FA8291E09E8390EA9887F6
:100D20009AEF99872091420130914301275F3F4F0D
:100D30003C832B838D831092E90010924301109223
:100D40004201109341010093400149E050E0BE018F
:100D50006F5F7F4F80E00E940F020E945D0379CF9A
:100D600010934101009340010E94ED02DC011296B4
:100D70000D911C910115110509F451C1D801ED9196
:100D8000FC910480F581E02DBE016B5E7F4FC801B0
:100D90000995009709F03EC1F80100851185EACF59
:100DA000F3E0FF120EC08F89882309F440C082301F
:100DB00061F440E860E18EE291E00E94DC01811183
:100DC00048CF81E28093EB0047CF813029F440E89F
:100DD0006BE082E291E0F1CF833099F70E94ED025F
:100DE000DC011296ED90FC908E010F5F1F4F6801A1
:100DF000E114F10479F0D701ED91FC910680F781BF
:100E0000E02DB801C7010995080F111DF701E08415
:100E1000F184EECFD8011C92F60101900020E9F791
:100E20003197BF016C197D0940E0C601C6CF6CE067
:100E300071E0FB01449150E080E80E940F0209CF6D
:100E4000973009F4BECF983021F481E08093F1000F
:100E500000CF993009F0FDCE837009F0B2CFEFE0FA
:100E6000F1E081E031E096E32191222371F080935B
:100E7000E9003093EB00DF0111972C912093EC00F7
:100E80009093ED008F5F873079F78EE78093EA00CB
:100E90001092EA008F8980935001DBCE8B8D9C8D60
:100EA0001092E90010924301109242019093410187
:100EB00080934001898D811192C08E899D89913ADC
:100EC00049F4813209F07DCF47E050E064E071E001
:100ED00080E0B3CF913209F074CF833269F48F8907
:100EE000988DB0E0A0E08093000190930101A09361
:100EF0000201B0930301ADCE803269F48091E80025
:100F000082FFFCCF67E084E091E00E94E0028BEF7B
:100F10008093E8009ECE823209F09BCE8F89809329
:100F20000B01EEEFFFE7859194918B3F9C4D51F1C2
:100F3000E0E0F8E08091040190910501A0910601A4
:100F4000B0910701803B9440A105B105F1F4809177
:100F50000B0180FD1AC0EE3F8AE0F80789F587E7AC
:100F600097E791838083809160008093440188E1BA
:100F70009BE00FB6F894A895809360000FBE909305
:100F8000600067CEEEEFFAE0D5CF808191818737A0
:100F9000974709F05ECEA8958091600088618093A4
:100FA00060008091440180936000EE3F2AE0F207E8
:100FB00089F08091FE0A9091FF0A9183808349CE47
:100FC000808191818737980751F29093FF0A80932F
:100FD000FE0AC5CF1092FF0A1092FE0A3ACE0E9476
:100FE000ED02DC0112960D911C910115110509F419
:100FF000E8CED801ED91FC910190F081E02DBE0189
:101000006B5E7F4FC8010995811123CEF8010085E1
:101010001185EBCF181619060CF41BCED2CEF1E0D9
:10102000FF12BECE60E171E004CFCF931092580161
:101030001092570188EE93E0A0E0B0E08093590150
:1010400090935A01A0935B01B0935C0189E191E018
:1010500090935601809355018FEF9FEF909362011B
:10106000809361011092CC018091C401811113C061
:101070001092BF011092BE018FE391E09093C101E5
:101080008093C00186E390E09093C3018093C201F6
:1010900081E08093C4018091B60181112AC0C1E032
:1010A000C093A901C093AA018FEA91E09093AC018B
:1010B0008093AB011092AE011092AD018BE291E0F2
:1010C0009093A6018093A5011092B1011092B001F6
:1010D0001092B3011092B201C093B401C093B50154
:1010E00081EC8093AF010E94ED020E94E600C09364
:1010F000B601E091B001F091B1013097B9F48EEBF7
:1011000091E09093B1018093B0018091B2019091F0
:10111000B3012091C2013091C301820F931F9093BC
:10112000B3018093B201CF910895FC018081918138
:101130000097D9F78EEB91E091838083E6CF789486
:1011400084B5826084BD84B5816084BD85B58260CC
:1011500085BD85B5816085BD80916E00816080937D
:101160006E001092810080918100826080938100E6
:1011700080918100816080938100809180008160F6
:101180008093800080919100826080939100809193
:1011900091008160809391008091900081608093A4
:1011A00090008091C10084608093C1008091C10053
:1011B00082608093C1008091C10081608093C100F2
:1011C0008091C30081608093C3008091C0008260E1
:1011D0008093C0008091C20081608093C2008091A2
:1011E0007A00846080937A0080917A008260809394
:1011F0007A0080917A00816080937A0080917A00F1
:10120000806880937A0010925001109247011092EA
:1012100046018091D70081608093D70080EA809357
:10122000D80089B5806189BD89B5826089BD09B45E
:1012300000FEFDCF61E070E080E090E00E947B0165
:101240008091D8008F7C80618093D8008091E000ED
:10125000807F8093E0008091E1008E7E8093E100AA
:101260008DE08093E200559A209A8FEF9FEF909344
:10127000620180936101C0E0D0E011E085E591E07A
:101280000E944C04181619064CF485E591E00E9462
:10129000CA03813309F064C0109349018091490168
:1012A0008823B1F01093CC0160E080E00E9401033C
:1012B0001092CC0160E080E00E94010360910C017B
:1012C00070910D01072E000C880B990B0E947B0179
:1012D000809148018823F1F1F12CE12CB7010F2C0A
:1012E000000C880B990B0E94170A25E33AEF4EE891
:1012F0005CE30E94520A4B015C010E942A0B2B0105
:101300003C01C501B4010E94A40B20E030E040EA9A
:1013100050E40E94520A0E942F0B062F20E030E07A
:1013200040EA50E4C301B2010E94520A0E942F0B0E
:10133000862F602F0E9401036AE070E080E090E059
:101340000E947B018AE0E80EF11C88E6E81681E045
:10135000F80621F6209709F491CF0E9400008ECF65
:10136000803319F41092490199CF823319F4109304
:10137000480194CF833319F4109248018FCF8335FD
:1013800009F08CCF0E940C04FC0197FD4AC08D32FD
:10139000910519F0C0970A97E8F5C12CD12C760178
:1013A00000E0E130F105D1F0ED32F105C1F1CF01FE
:1013B000C0970A9798F4AAE0B0E0A70196010E94AE
:1013C000100B6F01FF0FEE08FF08C60ED71EE81EB8
:1013D000F91E80E3C81AD108E108F10885E591E01B
:1013E0000E94CA030E940C04FC01C0970A97C8F22D
:1013F000E130F105B1F2002341F0F094E094D09493
:10140000C094C11CD11CE11CF11CD0920D01C092F2
:101410000C0144CF85E591E00E94CA03B3CF01E0FF
:10142000DDCFC12CD12C7601F0CFE89409C097FB19
:101430003EF490958095709561957F4F8F4F9F4FAB
:101440009923A9F0F92F96E9BB279395F6958795EF
:1014500077956795B795F111F8CFFAF4BB0F11F4B2
:1014600060FF1BC06F5F7F4F8F4F9F4F16C0882359
:1014700011F096E911C0772321F09EE8872F762F8F
:1014800005C0662371F096E8862F70E060E02AF0D0
:101490009A95660F771F881FDAF7880F96958795BC
:1014A00097F908950E94650A0C94D60A0E94C80A0A
:1014B00038F00E94CF0A20F0952311F00C94BF0A57
:1014C0000C94C50A11240C940A0B0E94E70A70F3CD
:1014D000959FC1F3950F50E0551F629FF001729FD9
:1014E000BB27F00DB11D639FAA27F00DB11DAA1FE8
:1014F000649F6627B00DA11D661F829F2227B00D35
:10150000A11D621F739FB00DA11D621F839FA00DBF
:10151000611D221F749F3327A00D611D231F849F0F
:10152000600D211D822F762F6A2F11249F57504066
:101530009AF0F1F088234AF0EE0FFF1FBB1F661FE1
:10154000771F881F91505040A9F79E3F510580F0AA
:101550000C94BF0A0C940A0B5F3FE4F3983ED4F35B
:10156000869577956795B795F795E7959F5FC1F74E
:10157000FE2B880F911D9695879597F9089597F9F9
:101580009F6780E870E060E008959FEF80EC089529
:1015900000240A9416161706180609060895002452
:1015A0000A9412161306140605060895092E0394CC
:1015B000000C11F4882352F0BB0F40F4BF2B11F440
:1015C00060FF04C06F5F7F4F8F4F9F4F089557FD9F
:1015D0009058440F551F59F05F3F71F04795880FA1
:1015E00097FB991F61F09F3F79F087950895121638
:1015F00013061406551FF2CF4695F1DF08C01616E4
:1016000017061806991FF1CF869571056105089494
:101610000895E894BB2766277727CB0197F90895AB
:101620000E941B0BA59F900DB49F900DA49F800D51
:10163000911D11240895A29FB001B39FC001A39FE3
:10164000700D811D1124911DB29F700D811D1124FB
:10165000911D08950E94670BE3950C94900B0E94D6
:10166000360B6894B1110C940A0B08950E94EF0A8E
:1016700088F09F5798F0B92F9927B751B0F0E1F053
:10168000660F771F881F991F1AF0BA95C9F714C003
:10169000B13091F00E94090BB1E008950C94090B50
:1016A000672F782F8827B85F39F0B93FCCF386953C
:1016B00077956795B395D9F73EF490958095709599
:1016C00061957F4F8F4F9F4F08950C94C50A0E94DC
:1016D000EF0AD8F3E894E0E0BB279F57F0F02AED3B
:1016E0003FE049EC06C0EE0FBB0F661F771F881F57
:1016F00028F0B23A62077307840728F0B25A620BE7
:10170000730B840BE3959A9572F7803830F49A95B1
:10171000BB0F661F771F881FD2F790480C94140CDC
:10172000EF93E0FF07C0A2EA2AED3FE049EC5FEB50
:101730000E94BD0B0E94D60A0F90039401FC9058A2
:10174000ECEAF0E00C94200C9F930E94670B0F9042
:1017500007FCEE5F0C94900B0E94C80A38F00E94C0
:10176000CF0A20F039F49F3F19F426F40C94C50AEF
:101770000EF4E095E7FB0C94BF0AE92F0E94E70AFC
:1017800058F3BA17620773078407950720F079F4B6
:10179000A6F50C94090B0EF4E0950B2EBA2FA02D94
:1017A0000B01B90190010C01CA01A0011124FF270E
:1017B000591B99F0593F50F4503E68F11A16F04009
:1017C000A22F232F342F4427585FF3CF4695379508
:1017D0002795A795F0405395C9F77EF41F16BA0BCD
:1017E000620B730B840BBAF09150A1F0FF0FBB1F7B
:1017F000661F771F881FC2F70EC0BA0F621F731FC4
:10180000841F48F4879577956795B795F7959E3F20
:1018100008F0B0CF9395880F08F09927EE0F9795B1
:10182000879508959F3F31F0915020F487957795E3
:101830006795B795880F911D9695879597F90895A7
:101840009F938F937F936F93FF93EF939B01AC01D3
:101850000E94520AEF91FF910E94340C2F913F9108
:101860004F915F910C94520ADF93CF931F930F9384
:10187000FF92EF92DF927B018C01689406C0DA2E12
:10188000EF010E94650AFE01E894A591259135912A
:1018900045915591A6F3EF010E94BD0BFE01970102
:1018A000A801DA9469F7DF90EF90FF900F911F91F4
:1018B000CF91DF910895EE0FFF1F0590F491E02D79
:0618C0000994F894FFCF2B
:1018C600FFFFFFFF00E1000000000000F40100C17F
:1018D600808100000000000000A4038E03C503BA47
:1018E600034C04CA03E803000000006604DF04A4F6
:0418F600048904005D
:00000001FF
